:020000040800F2
:100000000050002041230008F90C0008FD0C0008F6
:10001000010D0008050D0008090D00080000000092
:100020000000000000000000000000000D0D0008AE
:10003000110D000800000000150D0008190D000842
:10004000210D0008250D0008290D00082D0D0008C0
:10005000310D0008350D0008390D00083D0D000870
:10006000410D0008450D0008490D00084D0D000820
:10007000510D0008550D0008590D00085D0D0008D0
:10008000610D0008650D0008690D00086D0D000880
:10009000710D0008750D0008790D00087D0D000830
:1000A000810D0008850D0008890D00088D0D0008E0
:1000B000910D0008950D0008990D00089D0D000890
:1000C000A10D0008A50D0008A90D0008AD0D000840
:1000D000B10D0008B50D0008B90D0008BD0D0008F0
:1000E000C10D0008C50D0008C90D00080000000082
:1000F0000000000000000000000000000000000000
:0C01000000000000000000005FF808F1A3
:1001100010B5054C237833B9044B13B10448AFF341
:1001200000800123237010BDE401002000000000C6
:1001300068680008084B10B51BB108490848AFF3C0
:1001400000800848036803B910BD074B002BFBD0A3
:10015000BDE81040184700BF00000000E801002083
:1001600068680008E401002000000000034613F85E
:10017000012B002AFBD1181A0138704781F0004189
:1001800002E000BF83F0004330B54FEA41044FEA7C
:10019000430594EA050F08BF90EA020F1FBF54EA17
:1001A000000C55EA020C7FEA645C7FEA655C00F0B3
:1001B000E2804FEA5454D4EB5555B8BF6D420CDD84
:1001C0002C4480EA020281EA030382EA000083EA07
:1001D000010180EA020281EA0303362D88BF30BDA7
:1001E00011F0004F4FEA01314FF4801C4CEA1131FD
:1001F00002D0404261EB410113F0004F4FEA03335C
:100200004CEA133302D0524263EB430394EA050FE6
:1002100000F0A780A4F10104D5F1200E0DDB02FA55
:100220000EFC22FA05F2801841F1000103FA0EF2E9
:10023000801843FA05F359410EE0A5F120050EF1AF
:10024000200E012A03FA0EFC28BF4CF0020C43FAE0
:1002500005F3C01851EBE37101F0004507D54FF0ED
:10026000000EDCF1000C7EEB00006EEB0101B1F53D
:10027000801F1BD3B1F5001F0CD349085FEA300083
:100280004FEA3C0C04F101044FEA445212F5800F8E
:1002900080F09A80BCF1004F08BF5FEA500C50F12B
:1002A000000041EB045141EA050130BD5FEA4C0C0E
:1002B000404141EB010111F4801FA4F10104E9D197
:1002C00091F0000F04BF01460020B1FA81F308BF8E
:1002D0002033A3F10B03B3F120020CDA0C3208DD5A
:1002E00002F1140CC2F10C0201FA0CF021FA02F135
:1002F0000CE002F11402D8BFC2F1200C01FA02F1A5
:1003000020FA0CFCDCBF41EA0C019040E41AA2BFC9
:1003100001EB0451294330BD6FEA04041F3C1CDA91
:100320000C340EDC04F11404C4F1200220FA04F0B1
:1003300001FA02F340EA030021FA04F345EA03015B
:1003400030BDC4F10C04C4F1200220FA02F001FA1D
:1003500004F340EA0300294630BD21FA04F029469F
:1003600030BD94F0000F83F4801306BF81F4801138
:100370000134013D4EE77FEA645C18BF7FEA655CAB
:1003800029D094EA050F08BF90EA020F05D054EA7D
:10039000000C04BF1946104630BD91EA030F1EBF82
:1003A0000021002030BD5FEA545C05D14000494186
:1003B00028BF41F0004130BD14F580043CBF01F579
:1003C000801130BD01F0004545F0FE4141F470015F
:1003D0004FF0000030BD7FEA645C1ABF194610463A
:1003E0007FEA655C1CBF0B46024650EA013406BF3B
:1003F00052EA033591EA030F41F4002130BD00BFFA
:1004000090F0000F04BF0021704730B54FF48064B6
:1004100004F132044FF000054FF0000150E700BF37
:1004200090F0000F04BF0021704730B54FF4806496
:1004300004F1320410F0004548BF40424FF0000183
:100440003EE700BF42004FEAE2014FEA31014FEAC6
:1004500002701FBF12F07F4393F07F4F81F0605115
:10046000704792F0000F14BF93F07F4F704730B584
:100470004FF4607401F0004521F0004120E700BF17
:1004800050EA010208BF704730B54FF000050AE09E
:1004900050EA010208BF704730B511F0004502D59F
:1004A000404261EB41014FF4806404F132045FEAA1
:1004B000915C3FF4DCAE4FF003025FEADC0C18BF46
:1004C00003325FEADC0C18BF033202EBDC02C2F13C
:1004D000200300FA03FC20FA02F001FA03FE40EACE
:1004E0000E0021FA02F11444C1E600BF70B54FF0CE
:1004F000FF0C4CF4E06C1CEA11541DBF1CEA1355B0
:1005000094EA0C0F95EA0C0F00F0DEF82C4481EA17
:10051000030621EA4C5123EA4C5350EA013518BF37
:1005200052EA033541F4801143F4801338D0A0FB24
:1005300002CE4FF00005E1FB02E506F00042E0FBD1
:1005400003E54FF00006E1FB03569CF0000F18BFD7
:100550004EF0010EA4F1FF04B6F5007F64F540747F
:1005600004D25FEA4E0E6D4146EB060642EAC62112
:1005700041EA55514FEAC52040EA5E504FEACE2E7F
:10058000B4F1FD0C88BFBCF5E06F1ED8BEF1004F82
:1005900008BF5FEA500E50F1000041EB045170BDFE
:1005A00006F0004646EA010140EA020081EA030142
:1005B000B4EB5C04C2BFD4EB0C0541EA045170BD3E
:1005C00041F480114FF0000E013C00F3AB8014F1B8
:1005D000360FDEBF002001F0004170BDC4F1000401
:1005E000203C35DA0C341BDC04F11404C4F1200582
:1005F00000FA05F320FA04F001FA05F240EA0200DD
:1006000001F0004221F0004110EBD37021FA04F612
:1006100042EB06015EEA430E08BF20EAD37070BDCC
:10062000C4F10C04C4F1200500FA04F320FA05F02B
:1006300001FA04F240EA020001F0004110EBD3702D
:1006400041F100015EEA430E08BF20EAD37070BD9D
:10065000C4F1200500FA05F24EEA020E20FA04F376
:1006600001FA05F243EA020321FA04F001F0004125
:1006700021FA04F220EA020000EBD3705EEA430E96
:1006800008BF20EAD37070BD94F0000F0FD101F0C5
:100690000046400041EB010111F4801F08BF013CFE
:1006A000F7D041EA060195F0000F18BF704703F03C
:1006B0000046520043EB030313F4801F08BF013DC3
:1006C000F7D043EA0603704794EA0C0F0CEA13557F
:1006D00018BF95EA0C0F0CD050EA410618BF52EA39
:1006E0004306D1D181EA030101F000414FF000003F
:1006F00070BD50EA410606BF1046194652EA43064D
:1007000019D094EA0C0F02D150EA013613D195EAC0
:100710000C0F05D152EA03361CBF104619460AD108
:1007200081EA030101F0004141F0FE4141F4700112
:100730004FF0000070BD41F0FE4141F4780170BD02
:1007400070B54FF0FF0C4CF4E06C1CEA11541DBF67
:100750001CEA135594EA0C0F95EA0C0F00F0A7F869
:10076000A4EB050481EA030E52EA03354FEA013196
:1007700000F088804FEA03334FF0805545EA1313A9
:1007800043EA12634FEA022245EA111545EA106571
:100790004FEA00260EF000419D4208BF964244F108
:1007A000FD0404F5407402D25B084FEA3202B61A27
:1007B00065EB03055B084FEA32024FF480104FF4FB
:1007C000002CB6EB020E75EB030E22BFB61A75466F
:1007D00040EA0C005B084FEA3202B6EB020E75EB02
:1007E000030E22BFB61A754640EA5C005B084FEA6A
:1007F0003202B6EB020E75EB030E22BFB61A754637
:1008000040EA9C005B084FEA3202B6EB020E75EB41
:10081000030E22BFB61A754640EADC0055EA060E02
:1008200018D04FEA051545EA16754FEA06164FEA45
:10083000C30343EA52734FEAC2025FEA1C1CC0D1F1
:1008400011F4801F0BD141EA00014FF000004FF07E
:10085000004CB6E711F4801F04BF01430020B4F13F
:10086000FD0C88BFBCF5E06F3FF6AFAEB5EB030CF7
:1008700004BFB6EB020C5FEA500C50F1000041EBF4
:10088000045170BD0EF0004E4EEA113114EB5C04C1
:10089000C2BFD4EB0C0541EA045170BD41F4801194
:1008A0004FF0000E013C90E645EA060E8DE60CEA9C
:1008B000135594EA0C0F08BF95EA0C0F3FF43BAFB9
:1008C00094EA0C0F0AD150EA01347FF434AF95EA70
:1008D0000C0F7FF425AF104619462CE795EA0C0F54
:1008E00006D152EA03353FF4FDAE1046194622E721
:1008F00050EA410618BF52EA43067FF4C5AE50EAFB
:1009000041047FF40DAF52EA43057FF4EBAE12E7EA
:100910004FF0FF3C06E000BF4FF0010C02E000BFCB
:100920004FF0010C4DF804CD4FEA410C7FEA6C5CAE
:100930004FEA430C18BF7FEA6C5C1BD001B050EA51
:10094000410C0CBF52EA430C91EA030F02BF90EA3C
:10095000020F0020704710F1000F91EA030F58BFFB
:10096000994208BF90422CBFD8176FEAE37040F05D
:10097000010070474FEA410C7FEA6C5C02D150EAFB
:10098000013C07D14FEA430C7FEA6C5CD6D152EAB6
:10099000033CD3D05DF8040B704700BF844610467B
:1009A00062468C461946634600E000BF01B5FFF77A
:1009B000B7FF002848BF10F1000F01BD4DF808ED4A
:1009C000FFF7F4FF0CBF012000205DF808FB00BF1B
:1009D0004DF808EDFFF7EAFF34BF012000205DF875
:1009E00008FB00BF4DF808EDFFF7E0FF94BF0120C2
:1009F00000205DF808FB00BF4DF808EDFFF7CEFFC3
:100A000094BF012000205DF808FB00BF4DF808ED01
:100A1000FFF7C4FF34BF012000205DF808FB00BFD2
:100A20004FEA410C7FEA6C5C02D150EA013C0AD1EA
:100A30004FEA430C7FEA6C5C02D152EA033C02D1DC
:100A40004FF0000070474FF0010070474FEA41023D
:100A500012F5001215D211D56FF47873B3EB625210
:100A600012D94FEAC12343F0004343EA505311F037
:100A7000004F23FA02F018BF404270474FF00000C9
:100A8000704750EA013005D111F0004008BF6FF007
:100A9000004070474FF00000704700BF4A0011D27D
:100AA00012F5001211D20DD56FF47873B3EB6252C8
:100AB0000ED44FEAC12343F0004343EA505323FAD4
:100AC00002F070474FF00000704750EA013002D149
:100AD0004FF0FF3070474FF0000070474FEA41027F
:100AE000B2F1E04324BFB3F5001CDCF1FE5C0DD98C
:100AF00001F0004C4FEAC0024CEA5070B2F1004FD6
:100B000040EB830008BF20F00100704711F0804FD8
:100B100021D113F13872BCBF01F00040704741F49D
:100B200080114FEA5252C2F11802C2F1200C10FAA1
:100B30000CF320FA02F018BF40F001004FEAC12385
:100B40004FEAD32303FA0CFC40EA0C0023FA02F329
:100B50004FEA4303CCE77FEA625307D150EA0133FF
:100B60001EBF4FF0FE4040F44000704701F00040CF
:100B700040F0FE4040F40000704700BF10B50B4C41
:100B800021680B4802F054FA61680A4802F050FAF2
:100B9000A168094802F04CFAE168084802F048FAF6
:100BA0002169074802F044FA10BD00BF140200207A
:100BB0008068000898680008B0680008C8680008E5
:100BC000E068000810B500F01FF93A4C204601F02B
:100BD000EBF800F03BF900F061F900F0A7F900F044
:100BE000F5F82368344AA2FB03239B09013B334AEF
:100BF0005360F021324B83F82310002393600723C6
:100C000013604FF4FA7000F0C5F92E4802F082FA32
:100C10002D4802F07FFA2D4802F07CFA2C4C204639
:100C200002F078FA2B4802F075FA204602F072FAC8
:100C3000294802F06FFA294802F06CFA284802F0BD
:100C400069FA284802F066FA274802F063FA20465B
:100C500002F060FA254802F05DFA254800F0BEF97E
:100C60000446244802F056FAA4F13003052B12D8AA
:100C7000DFE803F00306090C110FFFF77FFF0AE01E
:100C800000F064FA07E000F0CFF904E000F0C0FAE9
:100C900001E000F095FD782CB7D14FF47A7000F0A8
:100CA00079F900F02BFA4FF47A7000F073F9002014
:100CB00010BD00BF14020020D34D621010E000E010
:100CC00000ED00E0F8680008146900082C690008CD
:100CD0003C690008546900086C6900087C690008D8
:100CE0008C690008A0690008B4690008CC69000894
:100CF00000380140D8690008704700BFFEE700BF18
:100D0000FEE700BFFEE700BFFEE700BF704700BF81
:100D1000704700BF704700BF08B500F055F908BD27
:100D2000704700BF704700BF704700BF704700BFEB
:100D3000704700BF704700BF704700BF704700BFDB
:100D4000704700BF704700BF704700BF704700BFCB
:100D5000704700BF704700BF704700BF704700BFBB
:100D6000704700BF704700BF704700BF704700BFAB
:100D7000704700BF704700BF704700BF704700BF9B
:100D8000704700BF704700BF704700BF704700BF8B
:100D9000704700BF704700BF704700BF704700BF7B
:100DA000704700BF704700BF704700BF704700BF6B
:100DB000704700BF704700BF704700BF704700BF5B
:100DC000704700BF704700BF704700BF10B584B0C8
:100DD0004FF4E13300930023ADF80430ADF8063052
:100DE000ADF80830ADF80C300C23ADF80A30054CE6
:100DF0006946204601F086F80121204601F03CF9C1
:100E000004B010BD0038014008B501F077FA0121A7
:100E1000042001F051F80121082001F04DF80121D2
:100E2000102001F049F80121202001F045F80121AE
:100E30004FF4804001F040F80121084601F03CF8F1
:100E40000121084601F012F808BD00BF30B583B09B
:100E500000214FF0006000F063FD4FF4E06000F00F
:100E6000F3FC06238DF8043000258DF805508DF82D
:100E7000065001248DF8074001A800F005FD072366
:100E80008DF804308DF805508DF806408DF8074038
:100E900001A800F0F9FC03B030BD00BF70B582B00E
:100EA0004FF40073ADF8043003258DF80650182375
:100EB0008DF807301B4C01A9204600F0D1FD4FF4FE
:100EC0008063ADF8043004268DF807600DEB060151
:100ED000204600F0C5FDADF804508DF807600DEB1D
:100EE0000601204600F0BCFD4FF44873ADF8043015
:100EF0008DF8065010238DF807300DEB06010A48D7
:100F000000F0AEFD4FF48073ADF804308DF806505C
:100F100014238DF807300DEB0601204600F0A0FDEC
:100F200002B070BD00080140000C014070B582B0F5
:100F30000021084600F0E4FE0124009400258DF80D
:100F400004500C268DF805608DF80640684600F0C8
:100F500009FD2146284600F0D3FE022300938DF8B8
:100F600004508DF805608DF80640684600F0FAFCE4
:100F70004FF4802000F062FD4FF48023009308239B
:100F80008DF805308DF80640684600F0EBFC02B0A5
:100F900070BD00BF82B00190019A044B1A60034BF0
:100FA0001B68002BFBD102B0704700BF000200207D
:100FB00008B54FF47A70FFF7EDFF08BD08B564205F
:100FC000FFF7E8FF08BD00BF034B1B681BB1024AD7
:100FD0001368013B136070470002002038B50446D7
:100FE0002021204601F0CAF80028F9D0204601F05F
:100FF000A3F8C5B22946204601F072F880212046A8
:1010000001F0BCF80028F9D00D2D01D10A2038BD1F
:10101000284638BD08B50A460146024802F008F8DD
:10102000FEE700BF2C6A000838B500F067F800241E
:1010300000E02C46FFF7C2FF651C14F0010F02D13F
:1010400000F040F801E000F047F801210A4800F004
:101050009BFD012802D100F011F801E000F018F822
:101060000221054800F090FD012802D100F01AF895
:10107000DFE700F01FF8DCE70008014008B54FF497
:101080000071024800F00CFE08BD00BF000C0140DA
:1010900008B54FF40071024800F0D2FD08BD00BF52
:1010A000000C014008B52021014800F0F9FD08BD01
:1010B000000C014008B52021014800F0C1FD08BD29
:1010C000000C014008B54FF48071024800F0E8FDC3
:1010D00008BD00BF000C014008B54FF48071024804
:1010E00000F0AEFD08BD00BF000C014008B5FFF7E1
:1010F000C5FFFFF7D7FFFFF7E5FF08BD08B5FFF70E
:10110000C7FFFFF7D7FFFFF7E7FF08BD10B504469D
:1011100018E0FFF7BDFFFFF7C5FFFFF7D3FFFFF7AD
:1011200047FFFFF7ABFFFFF7C5FFFFF7CBFFFFF769
:101130003FFFFFF7A3FFFFF7B5FFFFF7CDFFFFF777
:1011400037FF013C002CE4D110BD00BF08B5FFF70C
:10115000CDFFFFF72DFFFFF7D1FFFFF729FF03209A
:10116000FFF7D4FF08BD00BF024A536943F4807300
:101170005361704700100140024A5369184350619F
:10118000704700BF00100140024A13691843106104
:10119000704700BF0010014008B5FF20FFF7F4FFC3
:1011A00008BD00BF10B50446FFF7F6FF092C2DD887
:1011B000DFE804F005090D1115191D2125293F202F
:1011C000FFF7DAFF10BD0620FFF7D6FF10BD9B200A
:1011D000FFF7D2FF10BD8F20FFF7CEFF10BDA62076
:1011E000FFF7CAFF10BDAD20FFF7C6FF10BDBD2041
:1011F000FFF7C2FF10BD2720FFF7BEFF10BDBF20C5
:10120000FFF7BAFF10BDAF20FFF7B6FF10BD00BF5C
:1012100010B582B0274801F07DFF274A936943F05B
:101220001003936140F2FF13ADF8043003238DF8EF
:10123000063010248DF8074001A9204800F010FC6A
:10124000FFF792FFFFF7B4FEFFF7A6FF0120FFF7BD
:1012500093FFFFF7ADFE0220FFF78EFFFFF7A8FE1A
:101260000420FFF789FFFFF7A3FE0820FFF784FFA4
:10127000FFF79EFE2046FFF77FFFFFF799FE202035
:10128000FFF77AFFFFF794FE8020FFF775FFFFF767
:101290008FFE4020FFF770FFFFF78AFE002405E075
:1012A0002046FFF77FFFFFF783FE0134092CF7DDAF
:1012B00002B010BD5C6A000800100240001001403E
:1012C00070B50E46154600240AE0315D064800F070
:1012D00007FF8021044800F051FF0028F9D00134B5
:1012E000AC42F2D3284670BD0038014030B583B01F
:1012F00004460D469DF81800002101910091A18837
:1013000089B241F48071A180002B40F01A81012A3A
:101310004DD14FF6FF73009323889BB243F4807343
:10132000238005E0009B5A1E0092002B00F03981BB
:10133000A38A13F0010FF5D040F001009E4B187006
:101340001B7823824FF6FF73009305E0009B5A1E23
:101350000092002B00F02781A38A03F002039BB2C6
:10136000002BF3D023889BB223F480639BB22380AD
:1013700072B6238B9BB2019323889BB243F4007314
:10138000238062B6A38A03F040039BB2002BF9D0FE
:10139000238A2B70238803F400739BB2002BF9D1AE
:1013A00023889BB243F48063238001200FE1022A4B
:1013B0005BD123889BB243F4006323804FF6FF7315
:1013C000009323889BB243F48073238005E0009B45
:1013D0005A1E0092002B00F0E880A38A13F0010F40
:1013E000F5D04FF6FF73009340F00100724B187078
:1013F0001B78238205E0009B5A1E0092002B00F010
:10140000D680A38A03F002039BB2002BF3D072B6FE
:10141000238B9BB2019323889BB223F480639BB2FE
:10142000238062B6A38A03F004039BB2002BF9D099
:1014300072B60121204600F08FFC238A2B7062B621
:10144000238A6B70238803F400739BB2002BF9D1BD
:1014500023889BB243F48063238023889BB223F4C8
:1014600000639BB223800120B1E04FF6FF7300932D
:1014700023889BB243F48073238005E0009B591EB0
:101480000091002B00F09580A38A13F0010FF5D096
:101490004FF6FF73009340F00100474B18701B7824
:1014A000238205E0009B591E0091002B00F08E80E6
:1014B000A38A03F002039BB2002BF3D0238B9BB2D1
:1014C00001932FE0032A09D0A38A03F004039BB2FF
:1014D000002BF9D0238A05F8013B013A032A21D1D8
:1014E000A38A03F004039BB2002BF9D023889BB29C
:1014F00023F480639BB2238072B6238A2B702388E7
:101500009BB243F400732380238A6B7062B6A91CDC
:10151000A38A03F040039BB2002BF9D0238AAB705F
:1015200000220D46002ACDD1238803F400739BB21C
:10153000002BF9D123889BB243F4806323800120E0
:1015400045E0A3889BB243F40073A380A3889BB2B9
:1015500043F48063A3800121184B19600843164BA4
:101560001870174B9C4202D1164B1A6001E0164BC3
:101570001A6023889BB243F480732380238803F48A
:1015800080739BB2002BF9D1238B03F002039BB233
:10159000002BF9D123889BB243F480632380012080
:1015A00015E0002013E0002011E000200FE00020F3
:1015B0000DE000200BE000BF5306002004020020D5
:1015C000005400405806002054060020002003B0BC
:1015D00030BD00BF30B482B09DF81050002401949B
:1015E00000948488A4B244F480748480002B4ED18B
:1015F0004FF6FF73009303889BB243F4807303801C
:1016000004E0009B5C1E0094002B6CD0838A13F0D6
:10161000010FF6D005F0FE05364B1D701B780382D6
:101620004FF6FF73009304E0009B5C1E0094002BB8
:101630005BD0838A03F002039BB2002BF4D0038BB0
:101640009BB2019311F8013B0382013A09E0838ABE
:1016500003F004039BB2002BF9D011F8013B038285
:101660002246541E002AF2D1838A03F004039BB25F
:10167000002BF9D003889BB243F4007303800388E6
:1016800003F400739BB2002BF9D101202EE0838874
:101690009BB243F40073838083889BB243F48063DE
:1016A00083800021144B196005F0FE05114B1D705D
:1016B000124B984202D1124B1A6001E0114B1A6092
:1016C00003889BB243F480730380038803F4807320
:1016D0009BB2002BF9D1038B03F002039BB2002BCA
:1016E000F9D1012002E0002000E0002002B030BC6F
:1016F000704700BF53060020040200200054004041
:10170000580600205406002030B585B004A901F821
:10171000010D0A4C30250095002301222046FFF7D9
:1017200059FF0095002301220DF10E012046FFF71D
:10173000DDFD9DF80E0005B030BD00BF0054004037
:1017400008B50020FFF7E0FF08BD00BF2DE9F0411C
:1017500084B007460D46144604A9022301F8013D52
:10176000164E4FF03008CDF800800023012230469D
:10177000FFF730FFCDF800800023062202A9304693
:10178000FFF7B4FD9DF909209DF8083043EA0223D4
:101790009B113B809DF90B209DF80A3043EA022300
:1017A0009B112B809DF90D209DF80C3043EA0223FC
:1017B0009B11238004B0BDE8F08100BF00540040BD
:1017C00030B587B0FFF7BCFF01461B4801F030FC85
:1017D0000F238DF8143040238DF81530174C302529
:1017E00000950023022205A92046FFF7F3FE1023EF
:1017F0008DF814300E238DF8153000950023022249
:1018000005A92046FFF7E6FE0D4801F083FC0DF127
:101810000E0204A90DF11200FFF798FFBDF90E307A
:10182000BDF91020BDF91210064801F001FC4FF47B
:101830009670FFF7AFFBEAE7706A000800540040BB
:10184000846A0008B06A000810B50446B0F5E06F7D
:101850000FD0B0F5C06F0CD0B0F5A06F09D0B0F5C7
:10186000806F06D0B0F5407F03D062210448FFF7B7
:10187000D1FB44F0BF6444F40034024BDC6010BD83
:10188000C86A000800ED00E010B50446C378012BDB
:1018900003D974211F48FFF7BDFB63780F2B03D9D1
:1018A00075211C48FFF7B6FBA3780F2B03D97621CF
:1018B0001848FFF7AFFBE378FBB1174BDB68DB435E
:1018C000C3F30223C3F104010F22DA40637803FA61
:1018D00001F1A37813400B431B012278DBB20F49BF
:1018E0000A4482F800332378580903F01F030122C9
:1018F00002FA03F341F8203010BD23785A0903F0AF
:101900001F03012101FA03F32032044941F8223078
:1019100010BD00BFC86A000800ED00E000E100E073
:1019200038B505460C46B0F1005F06D0B0F1006F47
:1019300003D09D210848FFF76DFB084B9C4203D95B
:101940009E210548FFF766FB24F0604121F07F01EE
:101950002943034B996038BDC86A0008FEFF0700A1
:1019600000ED00E010B5044603792BB1042B03D041
:1019700069213048FFF74EFB6379082B07D00C2B09
:1019800005D0102B03D06A212A48FFF743FB2268B9
:10199000130D1B0503B91AB96B212648FFF73AFB53
:1019A000A379012B03D96C212248FFF733FBA379DC
:1019B000002B33D0204B1A68216822EA01021A60FA
:1019C0005A68216822EA01025A60227902F18042B3
:1019D00002F5823210682168014311609A6821681B
:1019E00022EA01029A60DA68216822EA0102DA60DA
:1019F0006379102B09D1104B996822680A439A60C9
:101A0000D96822680A43DA6010BD03F1804303F508
:101A10008233196822680A431A6010BD237903F1E2
:101A2000804303F582331A68216822EA01021A60B2
:101A300010BD00BFF06A00080004014010B5044664
:101A4000030D1B0503B918B9FB210348FFF7E2FAA0
:101A5000024B5C6110BD00BFF06A00080004014049
:101A6000F8B505460C46464B98421BD003F58063FB
:101A7000984217D003F58063984213D003F5806332
:101A800098420FD003F5806398420BD003F5806332
:101A9000984207D003F58063984203D0B1213948BA
:101AA000FFF7B8FAE3788BB1042B0FD0282B0DD0B9
:101AB000482B0BD0142B09D0102B07D01C2B05D092
:101AC000182B03D0B2212F48FFF7A4FA23881BB9A3
:101AD000B3212C48FFF79EFAE37803F00F06304657
:101AE00013F0100F0AD0A378013BDBB2022B03D90D
:101AF000BA212448FFF78EFAA07830432378E3B167
:101B00002E68002316E001229A40218832EA010162
:101B10000FD199000F278F4026EA070600FA01F13E
:101B20000E43E178282901D16A6102E0482900D1F9
:101B30002A610133072BE6D92E602388FF2B1ED99B
:101B40006E68002318E003F1080101228A40218811
:101B500032EA01010FD199000F278F4026EA0706CC
:101B600000FA01F10E43E178282900D16A61E17899
:101B7000482900D12A610133072BE4D96E60F8BDF2
:101B800000080140206B000838B504460D462A4B7A
:101B900098421CD003F58063984218D003F5806307
:101BA000984214D003F58063984210D003F5806307
:101BB00098420CD003F58063984208D003F5806307
:101BC000984204D040F21D111C48FFF723FA6B1E07
:101BD0009BB2012B28D9042D26D0082D24D0102DFE
:101BE00022D0202D20D0402D1ED0802D1CD0B5F528
:101BF000807F19D0B5F5007F16D0B5F5806F13D072
:101C0000B5F5006F10D0B5F5805F0DD0B5F5005F6C
:101C10000AD0B5F5804F07D0B5F5004F04D04FF48A
:101C20008F710648FFF7F6F9A3681D4201D0012025
:101C300038BD002038BD00BF00080140206B0008FF
:101C400038B504460D46144B98421CD003F580630A
:101C5000984218D003F58063984214D003F580634E
:101C6000984210D003F5806398420CD003F580634E
:101C7000984208D003F58063984204D04FF4B471C1
:101C80000648FFF7C7F925B940F269110348FFF785
:101C9000C1F9256138BD00BF00080140206B000874
:101CA00038B504460D46144B98421CD003F58063AA
:101CB000984218D003F58063984214D003F58063EE
:101CC000984210D003F5806398420CD003F58063EE
:101CD000984208D003F58063984204D04FF4BC7159
:101CE0000648FFF797F925B940F279110348FFF745
:101CF00091F9656138BD00BF00080140206B000804
:101D000070B505460C46062804D94FF411711048E9
:101D1000FFF780F90F2C04D940F245210C48FFF75A
:101D200079F904F0030292000F2000FA02F6A108EC
:101D3000084B023153F8210020EA060043F8210045
:101D400053F821009540054343F8215070BD00BF72
:101D5000206B00080000014038B504460D46104BCA
:101D6000984208D003F58063984204D04FF4D271B2
:101D70000C48FFF74FF9012D04D940F2A51109488D
:101D8000FFF748F92DB123889BB243F400732380F9
:101D900038BD23889BB223F400739BB2238038BDE7
:101DA00000540040506B000810B4294B5B6803F0EE
:101DB0000C03042B05D0082B06D013BB254B036066
:101DC00021E0254B03601EE0214A53685268C3F3AB
:101DD0008343023312F4803F04D1204A02FB03F311
:101DE000036010E01A4A526812F4003F04D01C4A03
:101DF00002FB03F3036006E0174A02FB03F30360F0
:101E000001E0144B036012494B68C3F30313154CF4
:101E1000E35CDAB20368D34043604A68C2F302224B
:101E2000A25CD2B223FA02F282604A68C2F3C222F2
:101E3000A25CD2B2D340C3604A68C2F381320A497D
:101E40008A5CD2B2B3FBF2F3036110BC704700BFEF
:101E50000010024000127A00001BB70000093D008C
:101E6000808D5B00040000200000002038B504468F
:101E70000D4620F4AA6323F0070303B920B940F20A
:101E80001A410B48FFF7C6F8012D04D940F21B4157
:101E90000748FFF7BFF825B1064A53691C43546150
:101EA00038BD044A536923EA0404546138BD00BFB5
:101EB000806B00080010024038B504460D4620F43F
:101EC0007F4323F0FD0303B920B940F237410B48AB
:101ED000FFF7A0F8012D04D94FF487610748FFF7F9
:101EE00099F825B1064A93691C43946138BD044AA8
:101EF000936923EA0404946138BD00BF806B000835
:101F00000010024030B587B004460D46564B98424B
:101F100013D0A3F5744398420FD003F58063984221
:101F20000BD003F58063984207D003F58063984295
:101F300003D0AD214D48FFF76DF82B68013B4C4AAB
:101F4000934203D9AE214948FFF764F8AB8833B117
:101F5000B3F5805F03D0AF214448FFF75BF8EB880F
:101F600063B1B3F5805F09D0B3F5005F06D0B3F578
:101F7000405F03D0B0213D48FFF74CF82B894BB1AF
:101F8000B3F5806F06D0B3F5C06F03D0B1213748E9
:101F9000FFF740F86A8922F00C039BB203B91AB923
:101FA000B2213248FFF736F8AB8963B1B3F5807FD1
:101FB00009D0B3F5007F06D0B3F5407F03D0B3213D
:101FC0002A48FFF727F8AB8973B1274B9C420BD007
:101FD000A3F574439C4207D003F580639C4203D071
:101FE000B7212248FFF716F8238A9BB2EA8823F428
:101FF000405313432382A3899BB2AA882989688905
:102000000A43024323F4B05323F00C031343A38188
:10201000A38A9BB2AA8923F440731343A38201A825
:10202000FFF7C2FE104B9C4201D1049A00E0039AD4
:1020300002EB820202EB82022B689B00B2FBF3F2FE
:102040000C4BA3FB0210400900010109642505FBAC
:10205000112212013232A3FB0223C3F343130343C1
:102060009BB2238107B030BD00380140B06B00083F
:102070001FAA44001F85EB5138B504460D46164B88
:10208000984214D0A3F57443984210D003F58063AE
:1020900098420CD003F58063984208D003F5806322
:1020A000984204D04FF4A1710C48FEF7B3FF012D04
:1020B00004D940F243110948FEF7ACFF2DB1A389C2
:1020C0009BB243F40053A38138BDA3899BB223F490
:1020D00000539BB2A38138BD00380140B06B0008AB
:1020E00038B504460D46124B984214D0A3F57443FC
:1020F000984210D003F5806398420CD003F58063BA
:10210000984208D003F58063984204D040F232210F
:102110000848FEF77FFFB5F5007F04D340F2332176
:102120000448FEF777FFC5F30805A58038BD00BF5A
:1021300000380140B06B000810B504460D4B9842C2
:1021400014D0A3F57443984210D003F580639842ED
:102150000CD003F58063984208D003F58063984261
:1021600004D040F243210448FEF754FFA088C0F396
:10217000080010BD00380140B06B000838B50546B6
:102180000C46264B984214D0A3F57443984210D0C5
:1021900003F5806398420CD003F58063984208D021
:1021A00003F58063984204D040F213311C48FEF7D7
:1021B00031FF012C18D0802C16D0402C14D0202CAC
:1021C00012D0102C10D0B4F5807F0DD0B4F5007F64
:1021D0000AD0082C08D0042C06D0022C04D04FF4CE
:1021E00045710F48FEF716FFB4F5007F0FD10B4B7A
:1021F0009D420CD0A3F574439D4208D003F5806343
:102200009D4204D04FF446710548FEF703FF2B882A
:102210001C4201D0012038BD002038BD00380140EB
:10222000B06B000882B00023019300932F4A13681B
:1022300043F4803313602D4B1B6803F40033009389
:10224000019B01330193009B1BB9019BB3F5A06F68
:10225000F1D1264B1B6813F4003F02D001230093F9
:1022600001E000230093009B012B3BD1204B1A6817
:1022700042F010021A601A6822F003021A601A680B
:1022800042F002021A60A3F580535A685A605A68F5
:102290005A605A6842F480625A605A6842F40042B6
:1022A0005A605A6822F47C125A605A6842F48812C2
:1022B0005A601A6842F080721A600C4B1B6813F067
:1022C000007FFAD0094B5A6822F003025A605A681C
:1022D00042F002025A60054B5B6803F00C03082BC6
:1022E000F9D100E0FEE702B0704700BF00100240E5
:1022F0000020024008B5FFF795FF08BD08B50E4B5A
:102300001A6842F001021A6059680C4A0A405A6081
:102310001A6822F0847222F480321A601A6822F459
:1023200080221A605A6822F4FE025A604FF41F029B
:102330009A60FFF7DFFF08BD001002400000FFF8C1
:10234000002103E0094B5B58435004310848094B16
:1023500042189A42F6D3084A02E0002342F8043BAE
:10236000064B9A42F9D3FEF72DFC7047106F000818
:1023700000000020E4010020E401002060060020AD
:1023800003460244934202D003F8011BFAE7704768
:102390002DE9F04788B0149F002B1E461299B8BF54
:1023A00003F1004327F02007B6BF1E4600232D236C
:1023B000462F1446109DDDF84CA00B7003D0452F1E
:1023C00003D1013501E0032300E0022307AA0492B0
:1023D00006AA03928DE828042246334601F0D8FE6F
:1023E000472F804602D1119BDB0728D5462F08EBEB
:1023F000050911D198F80030302B0AD100220023B2
:1024000020463146FEF7DAFA18B9C5F10105CAF8D7
:102410000050DAF80030994400220023204631466B
:10242000FEF7CCFA08B9302202E0CDF81C9006E0A5
:10243000079B994503D9591C07911A70F8E7404644
:10244000079B159AC8EB0303136008B0BDE8F0873B
:10245000034673B50029B8BF494203F8022BB4BF45
:102460002D222B22092942701ADD0DF10702164692
:102470000A2591FBF5F405FB1411092C01F130013B
:1024800002F8011D2146F4DC3031541E02F8011C13
:10249000B4421A460AD214F8012B03F8012BF7E7CD
:1024A0001A463024214402F8024B5970101A02B027
:1024B00070BD00002DE9F04F91B00C46DDF868804A
:1024C00016461F46054603F099F803681846099317
:1024D000FDF74CFE00230E93D8F800300A90073326
:1024E00023F0070303F1080294F81890D4F800B021
:1024F000C8F80020D3E90023C4E91223D4F84CA083
:10250000D4F848802AF000430B934FF0FF32A74BDA
:1025100040460B99FEF784FAA0B94FF0FF32A34B67
:1025200040460B99FEF75EFA60B900220023404650
:102530005146FEF74DFA10B12D2384F843309C4BE1
:102540009C4A0AE04246534640465146FEF768FA26
:10255000002800F09281984B984AB9F1470F8CBF40
:1025600090469846032323612BF0040323604FF029
:10257000000A3DE0B9F1670F00F08A81B9F1470F19
:1025800000F0868123600193636800210DF133021E
:10259000059002920093424653460691CDF8109062
:1025A000CDF80CE02846FFF7F3FE09F0DF03472BD8
:1025B000804600F08481B9F1650F0D9900F28D819C
:1025C00001394A4604F150000D91FFF741FF0E9A80
:1025D00082468318012A236100F37C812268D10797
:1025E00000F178819DF8333013B12D2384F8433006
:1025F000009733460FAA2146284600F09FF9013084
:1026000002D14FF0FF3096E123685A0501D42369C7
:1026100065E0B9F1650F40F2D580D4E912010022DE
:102620000023FEF7CBF978B30123654A31462846EB
:10263000B8470130E5D00E9B0D9A9A420BDB236818
:10264000D80708D423689B0740F111814FF0000898
:1026500004F1190906E10A9B099A31462846B84750
:102660000130CED04FF0000804F11A090E9B013B57
:102670009845E7DA01234A4631462846B8470130F3
:10268000BFD008F10108F1E70D9B002B29DC0123E5
:102690004B4A31462846B8470130B2D00D9B23B98A
:1026A0000E9B13B92368D907CCD50A9B099A3146EA
:1026B0002846B8470130A4D04FF0000904F11A0AA7
:1026C0000D9B5B42994509DA012352463146284663
:1026D000B847013095D009F10109F1E70E9B424658
:1026E000A7E00E9AA36D9A42A8BF1A46002A914607
:1026F00006DC4FF0000A29EAE97904F11A0B11E02F
:102700001346314642462846B8470130F1D178E7B2
:1027100001235A4631462846B84701303FF471AF8D
:102720000AF1010AA36DC9EB03029245F0DB08EB45
:1027300003090D9A0E9B9A420FDB2368DA070CD42B
:102740000E9B0D9A9844C9EB08089B1A9845A8BFA0
:102750009846B8F1000F08DC0FE00A9B099A314651
:102760002846B8470130EBD14BE743464A4631464D
:102770002846B84701303FF444AF4FF0000928EA3B
:10278000E87804F11A0A09E0012352463146284646
:10279000B84701303FF435AF09F101090D9A0E9B9E
:1027A0009B1AC8EB03039945EEDB4BE7FFFFEF7F76
:1027B000E86B0008EC6B0008F06B0008F46B000895
:1027C000F86B00080E9A012A01DCDB0738D50123DB
:1027D000424631462846B84701303FF412AF0A9BC3
:1027E000099A31462846B84701303FF40AAFD4E988
:1027F000120100220023FEF7E1F820B14FF000089B
:1028000004F11A090EE00E9B08F10102013B19E0E8
:1028100001234A4631462846B84701303FF4F1AE1D
:1028200008F101080E9B013B9845F1DB534604F18A
:10283000500231462846B84701307FF403AFE0E646
:102840004246012331462846B8470130EED1D8E64A
:1028500001234A4631462846B84701303FF4D1AEFD
:1028600008F10108E3680F9A9B1A9845F0DBE068CD
:102870000F9B9842B8BF18465DE062680EA8531CD3
:102880000DF1340E4BF480637FF474AE062201E048
:1028900012B90122626075E6002106910DF1330143
:1028A0008DE80C00236005904246CDF81090CDF8DD
:1028B0000CE0029153462846FFF76AFD80460D9BC7
:1028C000D81C02DB626893421DDDA9F102095FFAA0
:1028D00089F970E60133236184E6B9F1660F14D1FA
:1028E0000029636807DD216113B92268D2071DD56D
:1028F00001330B4419E013B92268D00701D5023324
:1029000013E0012311E04FF067090D9B0E9A9342EB
:1029100005DB22682361D10708D5013305E0002BD0
:10292000D4BFC3F102030123134423610D9B4FF075
:10293000000AA36556E611B0BDE8F08F2DE9F04717
:1029400091461F460A698B6806469342B8BF1346F4
:10295000C9F8003091F843200C46DDF8208012B110
:102960000133C9F800302368990642BFD9F8003016
:102970000233C9F80030256815F0060510D104F1BE
:10298000190A07E00123524639463046C047013054
:102990001AD00135E368D9F800209B1A9D42F1DB7B
:1029A00094F843302268003318BF012392060FD5F4
:1029B000E118302081F843005A1C94F84510224455
:1029C000023382F8431003E04FF0FF30BDE8F08798
:1029D00004F1430239463046C0470130F4D0226842
:1029E000D9F80050E36802F00602042A08BF5D1B14
:1029F0002269A3680CBF25EAE57500259342C4BF90
:102A00009B1AED184FF000091A344D4509D00123E7
:102A1000224639463046C0470130D5D009F1010978
:102A2000F3E70020BDE8F0872DE9F04317460A7E62
:102A300085B06E2A984606460C460C9B01F1430E63
:102A400000F0AE8011D8632A22D009D8002A00F005
:102A5000BB80582A40F0CA8081F84520834955E060
:102A6000642A1ED0692A1CD0C0E0732A00F0B0800E
:102A700009D86F2A2ED0702A40F0B8800A6842F038
:102A800020020A603EE0752A24D0782A3AD0ADE0D0
:102A90001A6801F14205111D1960136884F842306B
:102AA000A8E021681A6811F0800F02D0111D19608A
:102AB00008E011F0400F02F10401196002D0B2F9F0
:102AC000003000E01368002B3CDA2D225B4284F8D2
:102AD000432037E021681A6811F0800F02D0111DE1
:102AE000196007E011F0400F02F10401196001D0F4
:102AF000138800E01368227E5C496F2A14BF0A2203
:102B000008221BE078225A4984F845202268186878
:102B100012F0800F00F104051D6003D1550601D5A8
:102B2000038800E00368D00744BF42F0200222601F
:102B30001BB9226822F0200222601022002084F8B3
:102B4000430001E049490A226568002DA56008DBC1
:102B5000206820F0040020602BB9002D7DD175463F
:102B60000CE0002B79D07546B3FBF2F002FB10337A
:102B7000CB5C05F8013D03460028F5D1082A0BD1AE
:102B80002368DA0708D5236962689A42DEBF3023DA
:102B900005F8013C05F1FF35C5EB0E0323612EE07E
:102BA00008681A6810F0800F496903D0101D18607A
:102BB000136808E010F0400F02F104001860136879
:102BC00001D0198000E0196000232361754616E0EA
:102BD0001A68111D1960156800216268284602F004
:102BE00095FD08B1401B6060636804E004F1420594
:102BF00084F8422001232361002384F84330CDF878
:102C000000803B4603AA21463046FFF797FE01307D
:102C100002D14FF0FF3026E023692A46394630467C
:102C2000C0470130F5D023689B0710D5002504F17B
:102C3000190907E001234A4639463046C0470130AA
:102C4000E7D00135E368039A9B1A9D42F2DBE06806
:102C5000039B9842B8BF184605E00B7804F1420583
:102C600084F842308AE705B0BDE8F083FA6B0008CB
:102C70000B6C00082DE9F04F9A468B6816465A1ED9
:102C8000B2F5AE7F88BF6FF4AE7287B082BF9B187B
:102C9000019340F25D13884696BF00238B60019339
:102CA0000B684FF0000B43F4F06348F81C3B0746F9
:102CB0000C4645465A46D946CDF810B0CDF80CB072
:102CC000CDF808B0A168002900F0E58033681B78D2
:102CD000492B70D016D8392B0DD8312B40D22D2B43
:102CE00046D002D82B2B43D0D5E02E2B00F092807B
:102CF000302B23D0CFE0452B00F09580462B77D0AA
:102D0000412B0CE0652B00F08E800AD8542B75D037
:102D100002D84E2B34D0BEE0592B75D0612B46D053
:102D2000B9E06E2B2CD004D8662B61D0692B42D031
:102D3000B1E0742B62D0792B66D0ACE0206810F43F
:102D4000807F0DD0019B20F08000206009F10109F7
:102D5000002B00F08780013B01310193A16081E0ED
:102D600012EB0B0F40F09780216821F4C07105E051
:102D70002168080640F18F8021F0800121606FE01A
:102D80006AB9B9F1000F0CD1216801F4E060B0F527
:102D9000E06F06D121F4F0612160012260E0022A97
:102DA0005DD0BBF1010F1ED0BBF1040F1AE0012A68
:102DB00071D1022254E0BBF1000F0ED1B9F1000F26
:102DC0006CD1216801F4E060B0F5E06F6AD121F4C4
:102DD000F06121604FF0010B42E0BBF1030F02D024
:102DE000BBF1050F57D10BF1010B5FFA8BFB37E0FD
:102DF000BBF1020F4FD14FF0030B31E0BBF1060FD7
:102E000049D14FF0070B2BE0BBF1070F43D14FF037
:102E1000080B25E0216888053DD521F4207121604B
:102E2000CDF808901CE0216801F4A060B0F5806F37
:102E300004D048052FD5B9F1000F33D0880558BF0D
:102E4000029821F4F06158BFC0EB090041F4C07151
:102E50005CBF0390049521604FF0000900E003225D
:102E60002B700135A368013BA36023690133236103
:102E70007368013B002B736003DD336801333360FB
:102E800020E7D4F880313146384605929847059AB4
:102E900000283FF417AFB9F1000F03D0236823F4E3
:102EA00080732360013A012A0ED845450AD9D4F827
:102EB0007C31324615F8011D384698472369013B9D
:102EC0002361F2E70126ADE00BF1FF33062B22D898
:102ED000BBF1020F12D9ABF1030B5FFA8BFBCBEB0B
:102EE000050B5D4517D0D4F87C31324615F8011D2D
:102EF000384698472369013B2361F2E74545E1D90C
:102F0000D4F87C31324615F8011D384698472369BC
:102F1000013B2361F2E72368DA052CD55B050CD56C
:102F20004545CFD9D4F87C31324615F8011D3846D5
:102F300098472369013B2361F2E715F8011C2369D7
:102F4000652903F1FF3305F1FF3B23610DD04529CE
:102F50000BD0D4F87C31324638469847236915F8AF
:102F6000021C013BA5F1020B2361D4F87C313246EF
:102F7000384698475D46266816F0100651D12E70E7
:102F8000236803F4C063B3F5806F05D1029BC3EBE4
:102F900009035A4263B915E0039B9BB104990A23C4
:102FA00032460131384600F093FF039B049DC21A5C
:102FB00004F26F139D4228BF04F5B7751B492846DC
:102FC00000F0B4F800224146384600F0E9FE2268DD
:102FD000804612F0020F8946DAF8003003D01A1D3D
:102FE000CAF8002006E012F0040503F10402CAF852
:102FF000002003D01B68C3E900890EE01F68024669
:103000000B46FDF70DFD18B1284600F08BF803E0E4
:1030100040464946FDF762FD3860E3680133E360EE
:1030200000E00026304607B0BDE8F08F1C6C0008B9
:103030000FB40A4B13B51C6824B1A36913B9204619
:1030400001F02EFF05AB049AA1682046019303F01E
:103050008DF902B0BDE8104004B070477400002044
:1030600070B50E46054618B183690BB901F018FF1B
:10307000AB69AC6813B9284601F012FF224B9C42A1
:1030800001D16C6808E0214B9C4201D1AC6803E09F
:103090001F4B9C4208BFEC68A3891B0701D523691D
:1030A0003BB92146284600F079FF10B14FF0FF30C0
:1030B00070BD013EA36816F8011F013BA36091B1EA
:1030C000002B04DAA269934206DB0A2904D02368A4
:1030D0005A1C22601970EDE72246284600F00AFFCC
:1030E0000130E7D1E2E7002B08DA22460A21284620
:1030F00000F000FF0130D9D00A2070BD23680A20FB
:103100005A1C2260187070BD886C0008A86C0008FA
:10311000C86C0008024B01461868FFF7A1BF00BF4A
:1031200074000020004870470000C07F0EB400B556
:103130004FF402719CB0ADF814106FF0004104918F
:1031400007914FF6FF711DAB02900690084853F8A7
:10315000042BADF81610006802A9019302F0EAFFF3
:10316000029B00221A701CB05DF804EB03B070479C
:10317000740000202DE9F0410F46904602F0A4FDB6
:1031800004460D46B8F1000F11D0C7F30A53C3F13E
:103190006B03002B0BDD1B0503F17F55002405F5A8
:1031A000401522462B46FDF7A1F9BDE8F0812046E7
:1031B0002946BDE8F08100002DE9F04F1F469FB081
:1031C0000023824638461A930691159202F013FAAC
:1031D00006460068FCF7CAFF0446069B4FF000084D
:1031E0004FF000091993199B1A780D2A05D8092A5E
:1031F00013D2002A00F0968111E02B2A04D02D2A48
:1032000004D0202A0BD108E0002200E001220E9217
:103210005A1C19925B7823B984E10133E2E7002359
:103220000E93199D2B78302B5DD16B78582B01D0E4
:10323000782B4DD10E9B029701931AAB00939E4AB7
:103240001BAB19A9504601F000FF10F00706044619
:1032500000F07185062E05D10135002319950E93D6
:1032600000F069BD1A9A3AB135211CA802F013FE8C
:103270001A99504602F098FA062E22D8DFE806F096
:10328000040D08181D0D04004FF00009C84618E091
:10329000DDF87080DDF8749013E01D9B1B9A23F419
:1032A000801302F23342DDF8708043EA025908E0ED
:1032B000DFF808924FF0000803E06FF000494FF08C
:1032C000FF38210740F1378549F0004900F033BD50
:1032D000199B5A1C19925B78302BF9D0002B00F007
:1032E0002A85012300E000230893199B0A220993F1
:1032F00000239B460593049319980578A5F13003A4
:10330000D9B209290ED8049901300829C9BF0599F5
:1033100002FB0B3B02FB01330593049B1990013325
:103320000493E9E72246316803F08FF928B10020C1
:103330002B460246049D01464DE0199B1A1919922D
:10334000049A1B5D002A3FD11046302B05D1199BF2
:1033500001305A1C19925B78F7E7A3F13102082A71
:103360003FD8199A0992024600200546303B00F1E9
:10337000010123D00A4429462E180A24B1420CD058
:1033800001314F1E082F02DC04FB0BFBF6E710296E
:10339000DEBF059F67430597F0E72844082800F142
:1033A000010503DC0A2101FB0B3B06E0102DDFBF0A
:1033B00005980A2101FB003305930021199B581C35
:1033C00019905B78084601E00246049DA3F13001A4
:1033D0000929CBD90121652B01D0452B54D16DB9D9
:1033E00004E0652B40F0B5840022012128B9089B38
:1033F000002B00F09780054600E00025199B0693FE
:1034000001331993069B5B782B2B06D02D2B02D012
:103410000024079408E0012300E000230793069BA3
:1034200002331993069B9B78A3F13004092C29D809
:10343000302B04D1199B5C1C19945B78F8E7A3F13D
:103440003104082C20D8A3F13007199B4FF00A0E45
:103450001E46199B5C1C19945B78A3F1300CBCF1DF
:10346000090F03D80EFB0737303FF2E7A41B082CE7
:1034700044F61F6402DCBC42A8BF3C46079E26B14E
:10348000644202E0069C19940024002D54D10028C7
:1034900040F05184089A002A40F04D84002941D11F
:1034A0004E2B20D002DC492B0AD03BE0692B07D001
:1034B0006E2B18D036E000BF506C00080000F07F83
:1034C000AB4919A801F0F3FF60B3199BA949013B6F
:1034D00019A8199301F0EBFF10B9199B0133199347
:1034E000DFF8AC921AE0A44919A801F0E0FFC8B1D6
:1034F000199B1B78282B0FD11CAAA04919A801F0F1
:10350000E9FF052808D11D9BDDF8708043F0FF49D5
:1035100049F4E00900F00FBCDFF878924FF00008A2
:1035200000F009BC069B1993159B002B00F00E843C
:1035300000230E9300F001BC049BA71A002B08BFC8
:103540002B462C46102D5846A8BF10240493FCF798
:1035500057FF092C8046894613DD894B03EBC403D2
:1035600053E91223FCF7C2FF804605988946FCF711
:1035700047FF02460B4640464946FCF705FE80469B
:1035800089460F2D33DC002F00F0D58322DD162F66
:1035900007DC7B4D424605EBC7014B46D1E90001F4
:1035A00013E0C5F125039F4221DC754CC5F10F05E1
:1035B00004EBC5017D1B4246D1E900014B4604EBFB
:1035C000C504FCF793FFD4E90023FCF78FFF804686
:1035D0008946B0E317F1160F09DB694D4046A5EBAC
:1035E000C703D3E900234946FDF7AAF8EFE72C1BF0
:1035F0003C44002C5DDD14F00F010AD0604B4246C4
:1036000003EBC101D1E900014B46FCF76FFF804697
:10361000894634F00F0400F0C180B4F59A7F0FDDC5
:103620004FF0000BCDF810B0CDF81CB0CDF818B0AD
:103630002223CAF80030DFF858914FF0000889E1E2
:103640004046494600234F4E24110593012C0CDDC2
:10365000E20704D5D6E90023FCF748FF0123059AC9
:103660006410013205920836F0E70BB180468946B6
:10367000444B059AA9F1547903EBC201D1E9000149
:1036800042464B46FCF732FF21F0004389460A468A
:103690001B0D3D491B058B428046C1D8A1F5801109
:1036A0008B4286BFDFF8F0904FF0FF3802F154797B
:1036B00074E073D0644214F00F020AD0304B4046DD
:1036C00003EBC2034946D3E90023FDF739F88046EE
:1036D0008946241162D01F2C08DD4FF0000BCDF875
:1036E00010B0CDF81CB0CDF818B02CE140464946DA
:1036F00014F0100F0CBF00236A23244E05930023FF
:10370000002C09DDE20704D5D6E90023FCF7EEFE24
:10371000012364100836F3E70BB180468946059B08
:10372000EBB1C9F30A53C3F16B03002B494616DD15
:103730001F2B0EDD342BDEBF203B4FF0FF3202FA91
:1037400003F34FF00008CCBF4FF05C7903EA0109A6
:1037500005E04FF0FF3202FA03F303EA0808002203
:10376000002340464946FDF729F90028B5D117E066
:10377000ED6B00087B6C0008F56B0008646C0008BA
:10378000F86C0008C06D00080000A07C286C0008E0
:103790000000F07F0000F8FFFFFFEF7F002305939C
:1037A000CDF800B02B46049A0999504602F04EF825
:1037B000079000283FF434AF002FC7F10003A8BFE3
:1037C00000230F934FF0000B27EAE7731493CDF813
:1037D00010B0079B5046596801F0B1FF06900028D1
:1037E0003FF426AF079B0C301A6903F10C0102323B
:1037F000920001F099FF1CAB01931BAB0093424672
:103800004B465046CDE90A8902F0CFFA1A900028BB
:103810003FF40EAF0121504602F0A3F804900028B7
:103820003FF406AF1B9B0599002BACBF0F9A149A6F
:103830001C9CACBFD618D21AA3EB01032344B14998
:1038400003F1FF33ACBF149A0F9E8B42C4F13604D0
:1038500080F28580C91A1F29C8BFAB4D4FF0010700
:10386000D4BF07FA01F3ED1AA4EB0104D9BF099301
:10387000002507FA05F509973719059BBE42144440
:103880001C443346A8BF3B46A342A8BF2346002B97
:10389000C2BFFF1AE41AF61A0F9B002B63D1002F48
:1038A0007ADC149B002B40F08180002C00F3888090
:1038B000002E00F38F80069A1A99504602F0A5F95F
:1038C000834600283FF4B4AEC3680024C460049962
:1038D000089302F07EF9A04280F28B80089B002BB7
:1038E00040F00282B8F1000F40F0FE81C9F31303EB
:1038F000002B40F0F98129F000431B0D1B05B3F1AB
:10390000D66F40F2F181DBF81430002B6CD05946B1
:103910000122504602F00CF90499834602F059F94D
:10392000002840F3E18129F00043059A1B0D1B0597
:10393000002A00F08D80B3F1D66F00F38980B3F1D7
:103940005C7F00F3D38122234FF000084FF0000981
:10395000CAF80030079B002B40F0D981EBE101232E
:103960000025099388E71A460499504602F092F818
:10397000049000283FF45CAE01461A9A504601F0CC
:10398000F9FF089000283FF453AE1A99504601F011
:103990000BFF089B1A9382E73A461A99504602F0A9
:1039A000C7F81A9000287FF47CAF41E6149A069974
:1039B000504602F06FF8069000287FF476AF37E6A5
:1039C00022460699504602F0B3F8069000287FF48C
:1039D0006FAF2DE632460499504602F0A9F80490E4
:1039E00000287FF468AF23E6DBF81030012B8EDC73
:1039F0007AE161D1089AC9F3130322B343494A46D5
:103A00008B422ED1059B414663B1414B1340B3F12C
:103A1000D46F07D81B0DC3F16B034FF0FF3000FAD2
:103A200003F301E04FF0FF338B421AD139498A4248
:103A300002D101333FF4FCAD354B4FF00008134089
:103A400003F5801950E163B9B8F1000F09D16AE7B5
:103A5000A3F580136FEA13594FF0FF386FEA095945
:103A600042E115B115EA090F02E0099B13EA080FBC
:103A700000F03A81089B059A4046494653B1FFF74A
:103A800079FB02460B46DDE90A01FCF77DFB804627
:103A9000894629E1FFF76EFB02460B46DDE90A0184
:103AA000FCF770FB0022002380468946FCF786FF66
:103AB00000287FF448AF17E10499584602F0C3F993
:103AC00000224FF0804306460F46FCF78BFF00288C
:103AD0003FD0089B13B100260F4F10E0B8F1000F44
:103AE00003D1C9F313033BB91AE0B8F1010F03D1B5
:103AF000B9F1000F3FF427AF084F00260024064D10
:103B00003CE000BF02FCFFFFE2FBFFFFFFFF0F00F6
:103B10000000F07FFFFFEF7F0000F03F0000F0BFEC
:103B20000022994B30463946FCF752FF40B900223B
:103B3000964B30463946FCF7D9FC04460D4601E069
:103B4000089C924D05F1004316941793DDE9166722
:103B500014E08E4B002230463946FCF7C7FC089B28
:103B600004460D4623B901F100431090119303E080
:103B700002460B46CDE91023DDE9106729F000432A
:103B80001B0D1B050993099A814B9A422BD1DDE944
:103B90000A23A9F1547940464946CDE90C2302F0A5
:103BA00093F802460B4630463946FCF79FFC4246E6
:103BB0004B46FCF7E9FA21F000431B0D754A1B0543
:103BC000934280460CD9744B0D9A9A4203D10C9BB8
:103BD00001333FF42DADDFF8C0914FF0FF3872E0B4
:103BE00001F1547939E0059B3BB3099BB3F1D46FE4
:103BF00023D85DA3D3E9002320462946FCF7F2FE33
:103C0000B8B129462046FCF749FF002808BF01202B
:103C1000FCF7F6FB089B04460D4623B901F100436F
:103C20001290139303E002460B46CDE91223DDE91F
:103C30001267099A07F1D6639F1ADDE90A0102F0BB
:103C400043F802460B4630463946FCF74FFCDDE9A7
:103C50000A23FCF799FA80468946059B9BBB29F00D
:103C600000431B0D099A1B059A424E462BD129464B
:103C70002046FCF7EBFEFCF7D3FB0B460246294639
:103C80002046FCF77FFA089B04460D462BB9B8F195
:103C9000000F02D1C9F313067EB135A3D3E9002387
:103CA00020462946FCF794FE88BB33A3D3E90023C2
:103CB00020462946FCF7AAFE04E031A3D3E90023FD
:103CC000FCF786FE18BB1A99504601F06DFD069967
:103CD000504601F069FD0499504601F065FD5946D2
:103CE000504601F061FD74E5059B83B12B4B4046C6
:103CF0000D9300230C934946DDE90C23FCF7F6FBFA
:103D00008046894619B910B92223CAF800301A9999
:103D1000504601F049FD0699504601F045FD0499D1
:103D2000504601F041FD0799504601F03DFD5946CE
:103D3000504601F039FD159B13B1199B159A13607C
:103D40000E9B1BB1424609F1004307E042464B4639
:103D500004E000252A460121FFF73FBB1046194623
:103D60001FB0BDE8F08F00BF0000C0FFFFFFDF41C4
:103D70009535A094FFFFDF3F35E5AF350000E03F0C
:103D80009535A094FFFFCF3F0000F03F0000E03FDB
:103D90000000E07FFFFF9F7CFFFFEF7F00005039B6
:103DA000054B10B41B68054C1B6A002B08BF23464B
:103DB00010BCFFF701BA00BF74000020780000209B
:103DC0002DE9F0478046894692461E460F463D46FD
:103DD000089815F8014B01F00BFC2044427802F0E2
:103DE000080202F0FF030AB12F46F0E72D2C03D1A1
:103DF000BD1C7C78012303E02B2C04BF7C78BD1C08
:103E000016B1102E0AD15EE0302C5AD12A7802F079
:103E1000DF02582A50D16C7810260235002B14BFCF
:103E20004FF000426FF00042B2FBF6FE06FB1E218F
:103E300000221046A4F13007092F01D83C460AE0C1
:103E4000A4F14107192F01D8373C04E0A4F1610720
:103E5000192F13D8573CA64210DD571C0BD08645AE
:103E600007D301D1A14203DB00FB0640012202E09F
:103E700070464FF0FF3215F8014BDBE7511C0ED1B5
:103E8000002B4FF0220314BF4FF000406FF00040B2
:103E9000C8F80030BAF1000F07D1BDE8F08703B1D0
:103EA0004042BAF1000F11D00AB1013D00E04D4689
:103EB000CAF80050BDE8F0873024002EAED10826A5
:103EC000ACE70A26AAE7302CA0D0A7E7BDE8F08728
:103ED00037B5064C064D2468246A002C08BF2C46D2
:103EE0000094FFF76DFF03B030BD00BF74000020E9
:103EF00078000020F8B50F461446054618B18369CE
:103F00000BB900F0CDFF224B9C4201D16C6808E058
:103F1000204B9C4201D1AC6803E01F4B9C4208BF80
:103F2000EC68A369A360A3891A0709D523693BB18B
:103F300023682069FEB2181A636998420FDB08E013
:103F40002146284600F02AF80028F1D04FF0FF362D
:103F50001BE02146284600F039FF0028F6D1A3686F
:103F60000130013BA36023685A1C22601F70636903
:103F7000984204D0A389DB0707D50A2E05D1214634
:103F8000284600F023FF0028E0D13046F8BD00BFEE
:103F9000886C0008A86C0008C86C0008324B70B52B
:103FA0001D6806460C4625B1AB6913B9284600F0DA
:103FB00077FF2E4B9C4201D16C6808E02C4B9C4251
:103FC00001D1AC6803E02B4B9C4208BFEC68B4F90C
:103FD0000C309AB215071DD4D00602D409223260E3
:103FE0003AE0510712D5616B41B104F144039942A3
:103FF00002D0304601F09AFF00236363A38923F0C7
:104000002403A3810023636023692360A38943F011
:104010000803A38123694BB9A38903F42073B3F583
:10402000007F03D02146304601F01AFBA28912F02E
:10403000010305D00023A36063695B42A36103E031
:10404000920758BF6369A36023695BB9B4F90C3068
:1040500003F0800080B230B143F04003A3814FF001
:10406000FF3070BD002070BD74000020886C000817
:10407000A86C0008C86C00082DE9F74F03690C69AB
:1040800080469C427FDC013C01F114074FEA840E1C
:1040900000F1140606EB0E0357F82450019356F86E
:1040A00024300135B3FBF5F507EB0E09C5B34FF02E
:1040B000000A3846B446D34650F8043B9AB205FB92
:1040C00002A21B0C4FEA124A05FB03A392B2C2EBF9
:1040D0000B0BBCF800204FEA134A5A441FFA83FB2B
:1040E000DCF800308145CBEB134303EB224392B263
:1040F00042EA03424FEA234B4CF8042BDCD256F839
:104100000E306BB9019B043B9E421A4602D3C8F89D
:10411000104005E01268043B002AF8D1013CF3E7A7
:10412000404601F056FD00282BDB304601354FF0AC
:10413000000E57F8042B036891B2C1EB0E0E120C5F
:1041400099B27144C2EB134303EB214389B24FEAA6
:10415000234EB94541EA034340F8043BE9D256F8FF
:10416000242006EB840362B9043B9E421A4602D324
:10417000C8F8104005E01268043B002AF8D1013C61
:10418000F3E7284600E0002003B0BDE8F08F000010
:104190002DE9F04F456A95B08246219CCDE9022376
:1041A00045B9102001F098FACAF8240045608560EE
:1041B0000560C560DAF82430196859B15A680123DE
:1041C00093404A608B60504601F0EEFADAF82430F2
:1041D00000221A60039BA04A002BBDBF012323606D
:1041E000039B0023BCBF23F000430393DDF80C8046
:1041F000A8BF236028F000431B0D1B0593421DD16F
:1042000042F20F73209A1360029B43B9934A944B76
:10421000C8F31300002814BF1846104600E0904869
:10422000229B002B00F04685C37813B100F10803F0
:1042300000E0C31C229A136000F03CBDDDE902459A
:104240000022002320462946FCF7B8FB074658B158
:10425000209A01231360229B002B00F01E858148C9
:104260001860013800F026BD12AB019313AB009328
:1042700022462B46504601F098FDC8F30A5604909A
:1042800056B1C5F3130343F07F51204641F440116A
:10429000A6F2FF3611971DE0139B129E1E4406F2F4
:1042A0003243202B0ADD029A06F21240C3F140038A
:1042B00022FA00F008FA03F3184304E0C3F12000E7
:1042C000029B03FA00F0FCF79BF80123A1F1F871BF
:1042D000013E11930022644BFBF754FF58A3D3E92E
:1042E0000023FCF703F958A3D3E90023FBF74CFFA5
:1042F000044630460D46FCF793F855A3D3E9002356
:10430000FCF7F4F802460B4620462946FBF73CFF33
:1043100004460D46FCF79AFB002283460023204604
:104320002946FCF755FB58B15846FCF779F8024688
:104330000B4620462946FCF741FB08B90BF1FF3B31
:10434000BBF1160F0DD8DDE90223484901EBCB0183
:10435000D1E90001FCF75AFB30B10BF1FF3B002320
:1043600000E00123109300E01090129B9E1B731E2F
:10437000079343BFC3F10008002307934FF00008E1
:10438000BBF1000F06DB079BCDF82CB05B44079315
:10439000002705E00023CBEB0808CBF100070B93C7
:1043A0001E9B092B28D8052BC4BF043B1E931E9BC4
:1043B000C8BF0025A3F10203D8BF0125032B20D8D5
:1043C000DFE803F0060E0204012302E0012308E007
:1043D00000230A931F9B002B1DDD9946059321E0C6
:1043E00000230A931F9B0BEB030909F10103012B27
:1043F0000593B8BF012315E0012500231E930A95FC
:1044000001E001230A934FF0FF390022CDF8149008
:1044100012231F9206E04FF001094B46CDF814908D
:10442000CDF87C90DAF8244000226260042101F18A
:1044300014029A421CD86268490001326260F6E7B1
:1044400061436F63A787D23FB3C8608B288AC63F9A
:10445000FB799F501344D33F0000F07F786C000835
:10446000816C0008F96B00080000F83FF86C000848
:104470006168504601F063F9DAF8243020601B6867
:104480000693059B0E2B00F25B81002D00F05881F6
:10449000DDE90234BBF1000FCDE90E3430DD9F4A77
:1044A0000BF00F034FEA2B1502EBC303E80618CB02
:1044B000CDE908340CD5DDE90E01994B05F00F0567
:1044C000D3E90823FCF73CF90324CDE9020100E01D
:1044D0000224934E6DB1E90708D5DDE90801D6E95C
:1044E0000023FCF703F8CDE9080101346D1008360C
:1044F000F0E7DDE90823DDE90201FCF721F920E01E
:10450000CBF1000505B3DDE90E01844B05F00F0288
:1045100003EBC203D3E90023FBF7E8FFCDE9020177
:104520007F4E2D110023022455B1EA0705D5D6E9A7
:104530000023FBF7DBFF013401236D100836F3E79E
:104540001BB1CDE9020100E00224109BE3B1DDE9DB
:1045500002560022734B28463146FCF739FA98B1CF
:10456000059B8BB1B9F1000F40F3E6800BF1FF33EF
:104570000893314600226C4B2846FBF7B7FF013405
:10458000CDE902014E4602E0059ECDF820B020465E
:10459000FBF746FFDDE90223FBF7A8FF634B002290
:1045A000FBF7F2FDA1F1507304460C931D46D6B9FA
:1045B000DDE9020100225E4BFBF7E4FD22460C9B85
:1045C000CDE90201FCF722FA002840F03F820C9965
:1045D000224601F10043DDE90201FCF7F9F9002868
:1045E00040F02B82A8E00A9A4C4B711E002A49D059
:1045F00003EBC103D3E9002300204E49FCF7A0F8E8
:1046000022462B46FBF7BEFDCDE90C01069CDDE9F9
:104610000201FCF71BFA0546FBF702FF02460B46B8
:10462000DDE90201FBF7AEFDDDE90C23303504F8CE
:10463000015BCDE90201FCF7CBF9002840F01D83B6
:10464000DDE9022300203749FBF79CFDDDE90C235F
:10465000FCF7BEF9002840F0D180069BE31AB34274
:104660006ADADDE90C0100222F4BFBF73FFF002245
:10467000CDE90C01DDE902012B4BFBF737FFCDE95A
:104680000201C4E703EBC1012246D1E900012B4638
:10469000FBF72CFF069BCDE90C011D469C19DDE9BB
:1046A0000201FCF7D3F90646FBF7BAFE02460B46B9
:1046B000DDE90201FBF766FD303605F8016BAC421F
:1046C000CDE902014FF0000222D11A4BDDE90C01C5
:1046D000FBF75AFD02460B46DDE90201FCF796F9AD
:1046E000002840F08B80DDE90C2300201149FBF706
:1046F00049FD02460B46DDE90201FCF769F9D8B134
:1047000014F8013C621E302B40F0B7821446F7E7E4
:10471000054BFBF7EBFECDE90201C0E7F86C0008A2
:10472000C06D00080000F03F0000244000001C4065
:10473000000014400000E03FDDE90E34CDE9023412
:10474000139B002B7CDBBBF10E0F79DCAB4B03EB37
:10475000CB03D3E900671F9B002B14DA059B002BCA
:1047600011DC40F06C810022A54B30463946FBF746
:10477000BDFEDDE90223FCF73FF9059D2E4600282A
:1047800040F05F8165E1069CDDE9028932463B46E7
:1047900040464946FBF7D4FFFCF758F90546FBF7BE
:1047A0003FFE32463B46FBF7A1FE0B46024649461A
:1047B0004046FBF7E7FC05F1300E069B04F801EBE1
:1047C000C3EB040E059B73452DD102460B46FBF748
:1047D000DBFC8046894602460B4630463946FCF7EC
:1047E000F7F878B942464B4630463946FCF7E6F8CA
:1047F000002800F04482EB0704D440E2DDF820B04A
:1048000000E01C4614F8012C631E392A07D1069AD1
:104810009A42F6D1069930220BF1010B0A701A78F0
:1048200001321A702BE20022764BFBF75FFE00226A
:10483000002380468946FCF7C1F80028A6D01EE276
:104840000A9A002A2BD01E9A012A0ADC119A12B168
:1048500003F2334302E0129BC3F136033D46444664
:1048600013E0059B5D1EAF42BFBF0B9BEA1B9B186D
:104870000B93059BB6BF2F467D1B0025002BA7BFC2
:104880004446059BC3EB08040023079A01211A4400
:1048900050469844079201F064F8064602E03D460F
:1048A00044460A9E5CB1079B002B08DDA342A8BFCB
:1048B0002346079AC3EB0808E41AD31A0793002F7C
:1048C0001DDD0A9BABB18DB131462A46504601F041
:1048D000E1F8049A01460646504601F04BF8049967
:1048E0000890504600F060FF089B04937A1B06D0A6
:1048F00000E03A460499504601F0CCF804900121BA
:10490000504601F02EF80B9B05465BB31A46014654
:10491000504601F0BFF81E9B0546012B18DC029B98
:1049200083B9039BC3F3130373B9039B23F00047BD
:104930003F0D3F054FB1079B08F101080133079375
:10494000012702E0002700E0029F0B9B73B100E00B
:1049500000272B6905EB8303186900F0B5FFC0F150
:10496000200004E01E9B012BD9DD0B9F0120079B3B
:10497000184410F01F0008D0C0F12003042B02DD02
:10498000C0F11C0002E006D018461C30079B804492
:10499000034404440793B8F1000F05DD424604992F
:1049A000504601F0C5F80490079B002B05DD294611
:1049B0001A46504601F0BCF80546109B23B3294621
:1049C000049801F006F900281EDA00230A2204994F
:1049D000504600F000FF0A9B0BF1FF3B0490002BB8
:1049E00000F05F81314600230A22504600F0F3FEBA
:1049F000B9F1000F06463FDC3BE000BFF86C000851
:104A00000000144000002440059B002B2BDC1E9B63
:104A1000022B28DDDDF81490B9F1000F11D12946E1
:104A20004B460522504600F0D6FE01460546049846
:104A300001F0CFF800280CDC03E0354600E000254B
:104A40002E461F9B069C6FEA030B09E03546DDF8F6
:104A500020B0069B069A5C1C312313700BF1010BEE
:104A600005960026F7E00A9BDDF8149023B9069C12
:104A7000B2E01E9B022BCFDC002C05DD3146224626
:104A8000504601F055F806469FB17168504600F057
:104A900056FE0446326906F10C01023292000C30D7
:104AA00000F042FE01222146504601F041F80590F7
:104AB00000E00596029B069F03F001030793294639
:104AC0000498FFF7D9FA3146044600F130080498FB
:104AD00001F07FF8059A02902946504601F095F8BA
:104AE000C36802463BB901460A90049801F071F888
:104AF0000A9A034600E00123114650460A9300F04B
:104B000053FE0A9B53B91E9A42B9079A32B9B8F1BB
:104B1000390F2AD0029B002B1CDC1DE0029A002AD0
:104B200004DB1BD11E9ACAB9079ABAB9002B13DD50
:104B300001220499504600F0FBFF2946049001F041
:104B400048F8002803DC07D118F0010F04D0B8F1B1
:104B5000390F0AD004F131087C1C0CE0002B07F15E
:104B600001040BDDB8F1390F03D139233B70013754
:104B700056E008F1010887F800806CE0069B2746A4
:104B8000E31A4B4504F8018C3BD000230A22049918
:104B9000504600F020FE059B04909E424FF00A0212
:104BA0004FF000033146504604D100F014FE064693
:104BB000059084E700F00FFE002306460A220599BF
:104BC000504600F008FE059079E700230A22049978
:104BD000504600F000FE049029460498FFF74CFA76
:104BE000069B00F1300804F8018BE31A4B45ECDB1F
:104BF000069B0596B9F1010FACBF4B4401331F462C
:104C0000002601220499504600F092FF29460490A4
:104C100000F0DFFF002803DC15D118F0010F12D0DF
:104C20003C4614F8013C621E392B09D1069B934285
:104C300004D10BF1010B3123069A02E01446F0E790
:104C40000133137007E03C4614F8013C621E302B20
:104C500001D11446F8E72946504600F0A5FD059B12
:104C60006BB12EB19E4203D03146504600F09CFD00
:104C70000599504600F098FD01E0DDF820B0049958
:104C8000504600F091FD0023209A23700BF10103A0
:104C90001360229B1BB11C6001E008480AE00698E3
:104CA00008E0B9F1000F3FF7E2AE1E9B022B7FF741
:104CB000DEAEB1E615B0BDE8F08F00BFF86B0008BE
:104CC0008A892DE9F041054610070C4659D44B68F6
:104CD000002B02DC0B6C002B17DDE66AAEB102F490
:104CE0008052002392B22F682B600AB1606D15E0EC
:104CF000216A01232846B047411C0FD12B686BB1B4
:104D00001D2B01D0162B03D12F600020BDE8F081B0
:104D1000A38943F04003A381BDE8F081A3895A072A
:104D200005D56368C01A636B0BB1236CC01A0023EE
:104D30000246E66A216A2846B047431CA38906D189
:104D400029681D2939D8204ACA40D60735D50022FE
:104D500062602269D904226004D5421C01D12B680B
:104D600003B96065616B2F600029CED004F1440364
:104D7000994202D0284601F0D9F800206063BDE8CE
:104D8000F0810F69002FC0D093070E680CBF4B69EC
:104D90000023C7EB06080F608B6002E00744C0EBFE
:104DA0000808B8F1000FB0DD43463A46216A2846AC
:104DB000A66AB0470028F1DCA38943F04003A38131
:104DC0004FF0FF30BDE8F0810100402038B50B699D
:104DD00005460C46DBB118B183690BB900F060F8E9
:104DE0000C4B9C4201D16C6808E00B4B9C4201D1FA
:104DF000AC6803E0094B9C4208BFEC68B4F90C3086
:104E00002BB121462846BDE83840FFF759BF0020A6
:104E100038BD00BF886C0008A86C0008C86C00088A
:104E2000014900F0A9B800BFCD4D000810B50446F7
:104E3000002303604360836081814366C281036114
:104E400043618361194608225C30FDF799FA054BEE
:104E500024626362044BA362044BE362044B23634A
:104E600010BD00BFC5650008E76500081F660008A3
:104E70004366000870B568234D1E5D430E4605F17C
:104E8000740101F09FF8044640B1002180E842001F
:104E90000C30A06005F16802FDF772FA204670BD83
:104EA000836910B5044633BB8364C3640365124B46
:104EB000124A1B688262984204BF0123836100F09A
:104EC0001FF86060204600F01BF8A060204600F04C
:104ED00017F80022E06004216068FFF7A7FF0122B5
:104EE0000921A068FFF7A2FF02221221E068FFF764
:104EF0009DFF0123A36110BDE46B0008214E000853
:104F0000F8B51C4B07461E68B36913B93046FFF766
:104F1000C7FF4836B4687368013B04D4B4F90C5039
:104F20007DB16834F8E733680BB13668F2E70421E5
:104F30003846FFF79FFF30600028F6D10C233B6016
:104F4000F8BD4FF6FF73E3810123A38165662560F9
:104F5000A560656025616561A5610822294604F1A7
:104F60005C00FDF70DFA6563A563A564E564204662
:104F7000F8BD00BFE46B00082DE9F8438046894680
:104F800000F14804002694B1A5686768013F0CD47D
:104F9000AB89012B07D9B5F90E30013303D029466F
:104FA0004046C84706436835F0E72468EBE73046DB
:104FB000BDE8F883F0B506694B11B34200F1140562
:104FC00027DA11F01F0105EB860605EB830201D1FC
:104FD000294616E0141D55F823202B46C1F1200E5A
:104FE000CA40B44209D2276807FA0EF73A4343F899
:104FF000042B54F8042BCA40F3E71A6052B104336F
:1050000008E0B2420B4605D252F8043B41F8043B9B
:10501000F7E72B465B1B9B10036103B94361F0BDAF
:10502000A0F13003092B01D820380AE0A0F1610378
:10503000052B01D8473804E0A0F14103052B02D825
:105040002738C0B27047002070472DE9F04F8BB071
:10505000029016988A469046069300F0CCFA0368B0
:105060004FF0000B18460393FBF780F8039B019069
:10507000034413F8013C0793DAF8003002331F466B
:1050800013F8010B302802D10BF1010BF7E7FFF702
:10509000C7FF0446E0B9019A0399384601F0D5FAF2
:1050A000002834D1019BF85CFE18FFF7B9FF80B3EC
:1050B000334618781F46302803F10103F9D0FFF773
:1050C000AFFFB0FA80F534466D094FF0010B01E0F7
:1050D00000252C463A46164630780132FFF7A0FFED
:1050E0000028F8D1019A0399304601F0AEFA50B980
:1050F00054B9019BF4182246164630780132FFF766
:105100008FFF0028F8D134B1A41BA40003E03E4671
:1051100000E0044601253378502B01D0702B2AD1B2
:1051200073782B2B08D02D2B03D0711C4FF0000966
:1051300005E04FF0010901E04FF00009B11C0878CB
:10514000FFF76EFF431EDBB2182B14D8A0F110023C
:1051500011F8010FFFF764FF431EDBB2182B04D8D0
:105160000A2303FB0202103AF2E7B9F1000F00D064
:105170005242144400E03146CAF800102DB1BBF190
:10518000000F14BF002006207CE12946F31B013BE1
:10519000072B02DD01315B10FAE7029800F0CFFA2D
:1051A0004FF000090546CB46019B00F1140AC3F1FC
:1051B0000103CDF810A00893B7422FD2731E0593B8
:1051C000079A16F8013C93420BD0BBF1200F16D181
:1051D000049BC3F8009004334FF000090493CB46BE
:1051E0000DE0059B089A13449F42EED81846019A99
:1051F0000399099301F029FA099B68B1E5E716F8CC
:10520000010CFFF70DFF00F00F0000FA0BF0059BFB
:1052100049EA00090BF1040B1E46CDE7049840F85B
:10522000049BCAEB0000801028614701484600F04B
:105230004BFBD8F80060381AB04226DD871B394690
:10524000284600F042FEC8B17B1E591103F01F0230
:105250004FF001095AF8211009FA02F20A420ED061
:105260004B4502DC4FF0020909E0B91E284600F068
:105270002CFE0028F6D04FF0030900E081463946A5
:105280002846FFF797FE3C440CE009DA371A294616
:105290003A46029800F04CFC0546E41B00F1140A63
:1052A0004FF00009D8F808309C4208DD02982946E2
:1052B00000F07AFA149A00231360A320E2E0D8F8F1
:1052C0000400844253DA041BA6422EDCD8F80C30CA
:1052D000022B1AD0032B1CD0012B1DD1A6421BD1AF
:1052E000012E0BDCD8F80430069A622013600123EB
:1052F0002B61CAF80030149B1D60C3E0711E284664
:1053000000F0E3FD0028EDD106E0159B002BE9D06D
:1053100002E0159B002BE5D10298294600F044FAE3
:10532000149A002313605020ACE0671EB9F1000FFF
:1053300006D13FB13946284600F0C7FD814601E05D
:105340004FF001097A11012307F01F0703FA07F74D
:105350005AF8223021461F42284618BF49F0020958
:10536000361BFFF727FE0227D8F8044000E001278C
:10537000B9F1000F00F08180D8F80C30022B0ED06C
:10538000032B10D0012B76D119F0020F73D0DAF86D
:10539000000049EA000919F0010F07D16BE0159BE5
:1053A000C3F101031593159B002B64D0D5F810A011
:1053B00005F114034FEA8A0903EB090100201A687A
:1053C000B2F1FF3F02D001321A6020E043F8040B33
:1053D0009942F4D8AB689A4512DB696802980131AA
:1053E00000F0ADF983462A6905F10C010232920002
:1053F0000C3000F099F92946029800F0D5F95D4685
:105400002B695A1C2A6105EB830301225A61022F82
:1054100005F1140211D1D8F80030013B9E4227D18A
:105420007111012306F01F0603FA06F652F8213027
:105430001E420CBF022701271AE02B699A450ADA9F
:1054400001212846FFF7B6FDD8F8083001349C4208
:105450003FF72CAF0BE016F01F0608D0914459F827
:10546000040C00F031FAC6F12006B042E8DB012757
:1054700047F0200701E047F010073846149B1D60F5
:10548000069B1C600BB0BDE8F08FC2F108029200D1
:1054900070B5C2F120064368056803FA06F42C4390
:1054A000D340046040F8043F8842F4D370BD30B567
:1054B000036811F8014B01334CB11A78A2F1410590
:1054C000192D98BF2032A242F3D0002030BD0360D6
:1054D000012030BD0B682DE9F04F5E1102EB86060E
:1054E00013F01F0318BF0436351F174600228246EB
:1054F000A8462C46914685B0D0F800B0019346F8F6
:10550000042C00921BF8011F00293CD0084603928E
:105510000291FFF785FD039A00BB0299202916D856
:10552000009B9945EEDD444505D2072A03DC414640
:105530002046FFF7AAFFBC4223D90023A4F10408A8
:1055400044F8043CCDF8009044461A46DAE729298D
:1055500048D10BF10103CAF8003014E00132082AE7
:1055600009F1010906DDBC42CCD9002344F8043C12
:105570000122043C216800F00F0040EA0110206085
:10558000C0E70822BEE7B9F1000F2BD0444505D291
:10559000072A03DC41462046FFF777FFBC420CD9BF
:1055A0003B4654F8042BA54243F8042BF9D20022C1
:1055B00043F8042B9D42FBD20BE0019B4BB1C3F19E
:1055C00020024FF0FF33D34056F8042C134046F826
:1055D000043C2B6843B9BD4202D101232B6003E098
:1055E000043DF6E7042000E0052005B0BDE8F08F9B
:1055F000D0F8EC007047F03070470000044B1B6897
:10560000186A044B002808BF1846F030704700BFE6
:10561000740000207800002070B50E46B1F90E101D
:1056200090B0002914461D4606DA00232B60B3898A
:105630001A060ED540230EE001AA01F04BF800280F
:10564000F3DB029A02F47042A2F500535A425A4127
:105650002A604FF480630020236010B070BD00000A
:105660008B8973B59E0705460C4610D401AB6A467C
:10567000FFF7D2FF00990646284600F0A3FC68B960
:10568000B4F90C309A0522D443F00203A38104F14B
:105690004703236023610123636118E00D4BAB6274
:1056A000A389206043F08003A381009B2061636194
:1056B000019B4BB1B4F90E10284601F01DF818B14A
:1056C000A38943F00103A381A0893043A08102B0E4
:1056D00070BD00BF214E0008024B0146186800F063
:1056E00071BC00BF7400002082B001B901A93AB1B9
:1056F00043B113780B601278101C18BF012003E02F
:10570000104601E06FF0010002B0704710B5C9B259
:1057100002449042034605D01C7801308C42F8D1F7
:10572000184610BD002010BD10B5431E0A4491421A
:1057300004D011F8014B03F8014FF8E710BD70B524
:10574000456A04460E463DB91020FFF7C5FF60626A
:10575000456085600560C560656AEB6843B1636A52
:10576000DB6853F8260078B1026843F8262017E07A
:1057700021220421204600F0CAFB636AE860DB684E
:10578000002BECD1002070BD012101FA06F56A1D45
:105790009200204600F0BBFB0028F3D046608560F5
:1057A00000230361C36070BD70B5446A06460D46B0
:1057B0003CB91020FFF790FF706244608460046081
:1057C000C4603DB1736A6A68DB6853F822102960CF
:1057D00043F8225070BD2DE9F04106460C460D6994
:1057E0001F4601F1140E0023DEF80000013381B2E0
:1057F00002FB0171000C0F0C02FB007089B201EB7F
:1058000000419D424FEA10474EF8041BECDCD7B133
:10581000A3689D4212DB616830460131FFF78FFFBC
:105820008046226904F10C01023292000C30FFF72D
:105830007BFF21463046FFF7B7FF444604EB850364
:1058400001355F6125612046BDE8F0812DE9F8430F
:10585000064615461F46092208330C4693FBF2F311
:10586000002101229A4202DA52000131FAE7304661
:10587000FFF765FF089B092D43614FF001030361AA
:1058800011DD04F10908C1462C4419F8013B014619
:10589000303B0A223046FFF79EFFA145F5D108EBC9
:1058A0000504083C01E00A3409252D1B63199F42B9
:1058B00008DD14F8013B0146303B0A223046FFF771
:1058C0008AFFF3E7BDE8F883030C1B0413B9000457
:1058D000102300E0002310F07F4F04BF00020833C4
:1058E00010F0704F04BF0001043310F0404F04BFAC
:1058F00080000233002803DB420003D5581C7047A8
:105900001846704720207047036813F007020BD039
:10591000D90722D49A074BBF5B089B08036003603A
:105920004CBF01200220704799B209B91B0C10220C
:1059300013F0FF0F04BF1B0A0832190704BF1B092D
:105940000432990704BF9B080232D90702D45B08CE
:1059500005D00132036010467047002070472020B8
:10596000704710B50C460121FFF7E9FE01224461A2
:10597000026110BD2DE9F74F14460A692369884674
:105980009A42BEBF0B46A0461C46D8F81070D4F809
:105990001090D8F80830D8F8041007EB09069E429A
:1059A000C8BF0131FFF7CBFE00F114052B4605EB14
:1059B000860C0022634502D243F8042BFAE704F177
:1059C000140208F1140102EB890301EB870700932D
:1059D000009B0192934257D9B2F800B0BBF1000F7F
:1059E00023D08946AE464FF0000859F8044BBEF864
:1059F00000A0A3B20BFB03A34FEA144ADEF8004059
:105A000043444FEA14480BFB0A84F24604EB134468
:105A10009BB243EA04434F454FEA14484AF8043B1B
:105A200001D9D646E1E7CEF80480019B0432B3F8F1
:105A300002A0BAF1000F21D02C4689462B684FF006
:105A40000008B9F800E0B4F802B09BB20AFB0EBE41
:105A5000A346F04443EA08434BF8043B59F8043B9F
:105A6000B4F804E01B0C0AFB03E34F4503EB1843B7
:105A70004FEA134801D95C46E3E763600435A7E7C2
:105A80005CF8043D13B9013E002EF9DC066103B059
:105A9000BDE8F08F2DE9F843154612F003020646E3
:105AA0000F4607D0214C013A002354F82220FFF77B
:105AB00092FE0746AD1036D0746A3CB91020FFF74D
:105AC0000BFE7062446084600460C460D6F8248079
:105AD000D8F808404CB940F271213046FFF741FF39
